:06120800000089310E29EF
:101210007E14893194317A247E1009008931102995
:1012200050308400003085000F3090319820893193
:10123000A830840000308500363090319820893104
:1012400021308400013085000C30903198208931A4
:101250007E1020002B290030E92289315C2389315E
:101260004323893135218931322921002030EB0196
:10127000EC0120005B02031C08003D008E1C4A2983
:101280000130282A200053082100C5002000520800
:101290002100C4002000530821004506031D5429E5
:1012A0002000520821004406031D42294508EE0093
:1012B0004408ED004208ED024308EE3BEE1F6C29A6
:1012C0004508EE004408ED004208ED024308EE3BFD
:1012D000FF30ED077F30EE3D6E08803AE900933035
:1012E0006902031D752989306D02031C7E292100C6
:1012F0004408783EC200EC30453DC300210034086C
:101300003504031989293408860035088700811BB4
:101310000E2A0830DE01DF01E000A030E101D72213
:101320008931013028228931013A031DA129210088
:101330006B08A23E8600043087018100EB0A031986
:10134000EC0A023028228931013A031DB12921001B
:101350006B08A23E8600053087018100EB0A031965
:10136000EC0A033028228931013A031DC1292100EA
:101370006B08A23E8600063087018100EB0A031944
:10138000EC0A2100EA01EF016F08A03E8600870108
:101390006F08213E84000130850000080106031912
:1013A000D429EA01EA0AD9290830EF0A6F02031C9E
:1013B000C429460847040319EC296E08803AE9005D
:1013C0004708803A6902031DE72946086D02031C9D
:1013D000EC292100EA01EA0A21006A0B0E2AA0305A
:1013E0008600213087018400013085000830E90043
:1013F00016001A00E90BF829A030DE01DE0ADF0032
:101400000830E001E10001305B2289315F08B5005E
:101410005E08B4004508C3004408C200360837041B
:101420000319182A3608860037088700811B080030
:10143000D022893121002030DE01DF000130E000C0
:10144000E101E10A5B225F08B7005E08B600080010
:101450002100DF00502A5308803ADE0080305E020F
:10146000031D342A0230520203180134003451089B
:10147000803ADE0080305E02031D402A02305002B6
:101480000318013400344F08803ADE0080305E02D9
:10149000031D4C2A02304E0203180134003400347C
:1014A0005F08840004300402031800348C310435D2
:1014B000F53E82000800E6005E080319672A6635DB
:1014C000B83E86008701403FE700413F6E2A6635FF
:1014D000BC3E86008701403FE700413FE8006704CB
:1014E000031D752ADE01DF0108005F08E2007F307E
:1014F0006005E300670886006808870042316208DB
:10150000C03F6308C13F6708013EE2000030683D0C
:10151000E3006208860063088700610881006708AD
:1015200086006808870040308105670886006808E3
:1015300087008115670886006808870081175E08A4
:101540000319B72A6635B83E86008701403FE2009E
:10155000413FE30004306206E4006308E5006635BD
:10156000B83E86006408C03F6508C13FCB2A663597
:10157000BC3E86008701403FE200413FE30004306B
:101580006206E4006308E5006635BC3E8600640838
:10159000C03F6508C13F6808DF006708DE0008003B
:1015A0002200A01CD52A0230EA2B0230D52BE30002
:1015B000E2000130E0020030E13B600FE22A610A04
:1015C000031908006208860087015E088100E20AAC
:1015D000D92A2100DF00003A0319F52A013A03193C
:1015E000082B033A0319082B082BFC309900903084
:1015F00027009B00013030238931023030238931AC
:101600000130092389310230092389310330092B44
:101610000800DE00252B95130D1724000D1721005F
:10162000D201D30108008D1623008D1224008D16DF
:101630002100D001D10108000D1623000D12240055
:101640000D162100CE01CF0108005E088400043091
:101650000402031808008C310435ED3E82000800B6
:101660002100DE00372B0E1308008E1308005E08E1
:10167000003A0319422B013A0319332B033A031999
:10168000352B422B08005B08031D08003D008E012E
:101690009201163091009F3097007B30920021001C
:1016A00012150B178B173D008E19582B8E15532BC7
:1016B00001302000DB00080012113D009301900171
:1016C00098010E302100DF009930DE00E0015E0855
:1016D00086005F0887008101DE0A0319DF0AE00A3D
:1016E0000319672B16303D0091009F3097007B3027
:1016F00092002100E101610809070907203E8600E8
:1017000000308701C03FC13FC23FC33F0830E10AFC
:101710006102031C7B2B3D000E1796010E120E1367
:1017200090112100B101AA01AB01AC013D0090195B
:10173000902B01302100D800D700D601D501DA0165
:10174000E1016135B83E860000308701C03FC13FEE
:101750006135BC3E86000030C03FC13F6108CA3ED3
:10176000860081016108C83E860002308101E10ADD
:101770006102031CA12B2830B8001630B9013D00CE
:1017800098002000A3014030A2000830A1000430DE
:10179000A000A017DE012200A901AA01AB01AC0143
:1017A0002100D4012000DB0108002100DE00DE2B37
:1017B00022000E13080022008E1308005E08003A73
:1017C0000319E92B013A0319D82B033A0319DB2B30
:1017D000E92B08002100DE00F32B22000E17080081
:1017E00022008E1708005E08003A0319FE2B013A0A
:1017F0000319ED2B033A0319F02BFE2B08002100EF
:10180000F430B401B501C6000130C7002000530810
:1018100021004306031D102C20005208210042061F
:1018200003191B2C200053082100C300200052087C
:101830002100C200062C1E30F40001302E248B3112
:101840002030F001F1000130F200F301F30A7824B6
:1018500071082100B7007008B6000800F900741D77
:10186000342CF0014B248B31F41C3A2CF001F00A9B
:1018700079084B247908983EF5000E30F601F63DC4
:101880007508F7007608F800770886007808870062
:10189000740881000800F2002030F3007008F100A5
:1018A000F135720809070907710709070907F307E6
:1018B00073088600870181137008031D672C723539
:1018C000BC3E86007308C03F0030C13F6F2C7235AC
:1018D000B83E860087017308C03F0030C13F7308DF
:1018E0008600870101137308043E86000117080073
:1018F000F80070080319842C7835B83E86008701FB
:10190000403FF900413F8B2C7835BC3E8600870173
:10191000403FF900413FFA007904031D922CF00189
:10192000F10108007108F4007F307205F5007908B4
:1019300086007A08870042317408C03F7508C13FAD
:101940007908013EF40000307A3DF5007408860005
:101950007508870073088100790886007A08870077
:1019600040308105790886007A088700811579085A
:1019700086007A088700811770080319D42C7835FF
:10198000B83E86008701403FF400413FF500043037
:101990007406F6007508F7007835B83E86007608BC
:1019A000C03F7708C13FE82C7835BC3E86008701F0
:1019B000403FF400413FF50004307406F60075081E
:1019C000F7007835BC3E86007608C03F7708C13FF7
:1019D0007A08F1007908F00008008B312F2B8B3149
:1019E0000B2B8B31132B8B311C2B8A314F2A8A31D5
:0A19F0002B2A8A31372A8A31432A54
:101A00009531402D9531562D9531422D9531562DDC
:101A10009531562D9531562D9531562D9531562DA2
:101A20009531562D9531562D9531562D9531562D92
:101A30009531562D9531562D9531562D9531562D82
:101A40009531562D9531562D9531562D9531562D72
:101A50009531562D9531562D9531562D9531562D62
:101A60009531562D9531562D9531562D9531562D52
:101A70009531562D9531562D9531562D9531562D42
:101A80009531562D9531562D9531562D9531562D32
:101A90009531562D9531562D9531562D9531562D22
:101AA0009531562D9531562D9531562D9531562D12
:101AB0009531562D9531562D9531562D9531562D02
:101AC0009531562D9531562D9531562D9531562DF2
:101AD0009531562D9531562D9531562D9531562DE2
:101AE0009531562D9531562D9531562D9531562DD2
:101AF0009531562D9531562D9531562D9531562DC2
:101B00009531562D9531562D9531562D9531562DB1
:101B10009531562D9531562D9531562D9531562DA1
:101B20009531562D9531562D9531562D9531562D91
:101B30009531562D9531562D9531562D9531562D81
:101B40009531562D9531562D9531562D9531562D71
:101B50009531562D9531562D9531562D9531562D61
:101B60009531562D9531562D9531562D9531562D51
:101B70009531562D9531562D9531562D9531562D41
:101B80009531562D9531562D9531562D9531562D31
:101B90009531562D9531562D9531562D9531562D21
:101BA0009531562D9531562D9531562D9531562D11
:101BB0009531562D9531562D9531562D9531562D01
:101BC0009531562D9531562D9531242D95313B2D3E
:101BD0009531362D02305806031DEF2D1B2ED801EE
:101BE00021005908031D192E20005008013EF6005F
:101BF0000030513DF70076088600770887000830EE
:101C000081004030F600F701500886005108870037
:101C100042317608C03F7708C13F5008860051081E
:101C200087000C308100500886005108870081171A
:101C30000800D90108005A0886008701413FF500D5
:101C4000F200F301730821002C02031D292E7208F3
:101C50002B0203182D2E2B08F5007508AB02031C70
:101C6000AC03F401750874020318422E280886009C
:101C700087017408483E8400850100088100A80A95
:101C8000F40A322E2B082C0403197B2E2000500856
:101C9000013EF2000030513DF300720886007308E7
:101CA0008700083081004830F200F30150088600B8
:101CB0005108870042317208C03F7308C13F5A087B
:101CC000860087015008011B702E8600510887008E
:101CD00048308100500886005108870081170800AD
:101CE000860051088700083081005008860051089E
:101CF00087008117080020005008013EF2000030E4
:101D0000513DF30072088600730887000830810097
:101D10004030F200F301500886005108870042313C
:101D20007208C03F7308C13F500886005108870001
:101D30000430810050088600510887008117210077
:101D40002D082E040319AD2E0530A83E860087010C
:101D5000413F8A00403F0A008E312100AA13200033
:101D60005408031D08009531C22D40081F39013A5F
:101D7000031D08004408031D08000630410603192E
:101D8000D62EE12E5E0BE12E85302100AF0098307B
:101D9000B0000930D12E00302100AF009830B000E3
:101DA0003F30B200B301C030B100E12E4308213A08
:101DB0000319C22E033A0319CB2E013A0319E12E5F
:101DC000E12E2000400E890C0339013A031D080062
:101DD000132F2A2FDD302100AF000030B00001307A
:101DE000B200B301C130B100080080302100B10061
:101DF000200043082100DD00F00020004208212FD0
:101E0000DC302100AF000030B0000130B200B3017F
:101E10008130B100080080302100B100200042086C
:101E20002100DC0008004108FF3E031C080084007C
:101E30000B300402031808008F310435DF3E8200A6
:101E40000800F1007108031D080070082100C60099
:101E5000C701080048302100A8000830AB00AC01E1
:101E60001030AE009E30AD00AA17080021001211FC
:101E70003D009301900198010E30F1009930F0007F
:101E8000F20170088600710887008101F00A0319C9
:101E9000F10AF20A0319412F163091009F30970082
:101EA0007B309200F301730809070907203E860082
:101EB00000308701C03FC13FC23FC33F0830F30A33
:101EC0007302031C532F0E1796010E120E1390115E
:101ED0002100B101AA01AB01AC013D009019672FAF
:101EE00001302100D800D700D601D501DA01F30175
:101EF0007335B83E860000308701C03FC13F73355F
:101F0000BC3E86000030C03FC13F7308CA3E860019
:101F100081017308C83E860002308101F30A730212
:101F2000031C782F28302100B8001630B9013D007D
:101F300098002000A3014030A2000830A100043026
:101F4000A000A017DE012200A901AA01AB01AC018B
:101F50002100D4012000DB01080091316429913176
:101F60006529913151299131652991315129913159
:101F700052299131582991317A2991315A29913137
:101F800059299131662991317029913151292100C6
:101F9000DA0174302000DF000030E001E101E201ED
:101FA000E301E40195311C258F313D008E101211A3
:101FB000101DDC2F1011D82F2100D40108008F3103
:101FC000202F8E31EA2E8F31002F8F31202F8F312D
:101FD000202F8F31202F8F31202F8F31202F8E31C6
:101FE000E92E8E31F52E8F310B2F9031F128903163
:0A1FF000CA289031D3289031DD2873
:102000009631382E96313F2E9631472E96314F2EEF
:1020100096315F2E9631662E96316E2E9631762E43
:102020009631862E9631902E96319C2E9631A42E86
:10213000640080010131890B99280034200048088F
:102140002200A000913106210800F100BC28FC30DB
:1021500021009900903027009B000130F22090313F
:102160000230F22090310130C82090310230C82076
:1021700090310330C82008007108003A0319A728DD
:10218000013A0319C728033A0319C728C7280800CA
:10219000F000E728210095130D1724000D172100EA
:1021A000D201D301080021008D1623008D122400D6
:1021B0008D162100D001D101080021000D16230049
:1021C0000D1224000D162100CE01CF010800700869
:1021D000840004300402031808008F310435F53EF2
:1021E00082000800F000FA2821000E1308002100E8
:1021F0008E1308007008003A03190529013A0319E3
:10220000F428033A0319F72805290800A01C0B2914
:102210000230AE25080002309A2508002000D901BE
:10222000D4012100D601D501D9012000D801210017
:102230003808860039088700043081133806B80052
:10224000860039088700043081133806B800200062
:10225000500886005108870081132100B101B201A6
:10226000B301AA01AB01AC0141219131033020003F
:10227000DF00E001E101E201E301E4011C2591310D
:10228000A82A2000400E890C0339031D08004108CC
:1022900084000D300402031808008F310435AD3E70
:1022A000820008002100B11708302000DB00080080
:1022B00082293D2A5E302100AF000030B000311489
:1022C0000130B200B1170800F2297D2B44085D3EB1
:1022D0002100AF00B00131140130B200B117080085
:1022E0002100B117200044085D3E860087014208A6
:1022F000810008000230DF00E001E101E201E301BA
:10230000E4011C2D803020004006031D0800C03071
:102310002100B100E529B8302100AF009830B000AD
:102320001230B200B30108004208031DC029420860
:10233000F000D430F101F035F10D700784009830D1
:10234000713D8500003F2100AF00013FB000300823
:10235000F1002F08F000023E840071080318710A92
:1023600085000008B2003008F1002F08F000033E9D
:10237000840071080318710A85000008B300080082
:102380002100B1010800033042020318DF2942088E
:10239000F000CA30F101F035F10D7007840098307B
:1023A000713D8500003F2100AF00013FB0002F08C4
:1023B0008400300885000008B200B3010800210045
:1023C000B10108002100B101080020004308013AD2
:1023D00003198B29033A03199429013A0319C329D4
:1023E000E22908002000C801C901282A2100B117EC
:1023F0005B0B332A2000C814332A2100B117332A7B
:102400002100B1172000C41B0F2A44080F39090707
:10241000BC3E86008701403FF000413F182A440837
:102420000F390907B83E86008701403FF000413F61
:10243000F1007008860071088700811F332A700838
:10244000860071088700011D332A0130C800332A35
:1024500040081F390319F629013A0319FD29033AE7
:102460000319002A332A2100B11F08004830AF00A9
:10247000B00131140230B20008002100B1170E3053
:102480002000E6009930E500E7016508860066084F
:1024900087008101E50A0319E60AE70A0319452ABC
:1024A0002030F001F101F200F301962291313D005C
:1024B0000E172000E8016808CA3E860087018101E6
:1024C0006808C83E860002308101E80A6802031CE1
:1024D0005B2A5D30F001F101F201F20AF30196226C
:1024E00091313D000E1328302100B8002030B90191
:1024F0002000DA00D000FF39031D0030D10042086F
:10250000DE005E08031D872A1030DB0008005E3005
:10251000DF01DF0AE001E1000030E200E301E30A4D
:10252000E4011C2520302000DB000800F400F50049
:102530000130F2020030F33B720FA12A730A031933
:10254000080075088600870170088100F50A982A3E
:102550003D000E122100B11BEC2AAA1FBB2A02303B
:102560002000D80021005508031DB72A252321008B
:10257000D701D801080020005008013EF5000030C6
:10258000513DF60075088600760887000830810006
:102590004030F500F60150088600510887004231AE
:1025A0007508C03F7608C13F500886005108870073
:1025B0000C308100500886005108870081172100E7
:1025C0003808860039088700043081003808860002
:1025D00039088700811708002000C01FFF2A01303A
:1025E000D80021005608031DF72A25239131210028
:1025F000D701D80120005408031D0800C22D023065
:10260000D8005008013EF5000030513DF600750835
:10261000860076088700083081004030F500F6011A
:10262000500886005108870042317508C03F76087F
:10263000C13F5008860051088700043081005008CF
:102640008600510887008117F72AD601D50102308C
:1026500020005806031D502B5008013EF3000030A7
:10266000513DF4007308860074088700083081002B
:102670004830F300F40150088600510887004231C9
:102680007308C03F7408C13F500886005108870096
:1026900048308100500886005108870081170800E3
:1026A0002100330820004702031D5A2B2100320865
:1026B000200046020318632B47082100B3002000C6
:1026C00046082100B20066274830F300F4012100DB
:1026D000380886003908870042317308C03F740803
:1026E000C13F380886003908870048308100380823
:1026F000860039088700811708002000420B912BC3
:1027000040081F39031D912B2100B1170330200011
:102710004106031D8F2B01302100DB00912B21008E
:10272000DB0120004208031D080040081F39023A5F
:10273000031D080044080F390319080044080F3925
:10274000FB0002307B020318080020305B06031DEB
:1027500008002100B1172000C41BBC2B44080F390E
:102760000907BC3E86008701403FE800413FE90081
:1027700044080F39C83EC92B44080F390907B83E31
:1027800086008701403FE800413FE90044080F39D7
:10279000CA3E86000108E7006718D92BFB30FB0012
:1027A000FF30FC0068087B05E80069087C05E9004B
:1027B000DC2B04306804E800C41BE92B44080F3903
:1027C0000907BC3E860087016808C03F6908C13F11
:1027D000F32B44080F390907B83E860087016808C3
:1027E000C03F6908C13F03304106031D142C68082F
:1027F000860069088700811F092CC41B032C44082C
:102800000F39C83E062C44080F39CA3E860087019E
:102810008114680886006908870001156808860029
:10282000690887008117080004306806E800860000
:10283000690887006808811F332C860069088700B3
:102840008113680886006908870005300117DF00DA
:10285000E0016908E2006808E1000230E300E401F9
:102860001C259131372C8600690887000117043038
:1028700020006806E800E718432C6808860069080D
:102880008700811F622CC41B492C44080F39C83EA5
:102890004C2C44080F39CA3E860087018110680815
:1028A0008600690887003B3081050530DF00E001C4
:1028B0006908E2006808E1000230E300E4011C2539
:1028C0009131682C68088600690887003B308105D3
:1028D000200044080F39983EFB000E30FC01FC3DFF
:1028E0007B08E5007C08E60065088600660887002E
:1028F0000110080020005B03031D872C3D008E1A89
:10290000872C90011214121602302000DB003D00CB
:102910001019121D8F2C10118F31C72791313D00D6
:102920008E1C952C2000121108001018121CA22CCD
:102930008F31362791312100121504302000DB0041
:102940003D001010101A121EA72CF02791313D00E7
:10295000101FC42C121FB72C73302000DF00E001C1
:10296000E101E201E301E30AE4011C2591313D00AC
:102970001013BE27913120005508031DD5035508BB
:10298000031DC42CC22591313D00901A921ECA2C01
:10299000D02791319018921CDB2CFF302000DF00F3
:1029A0007F30E000E101E201E301E30AE4011C25DC
:1029B00091313D009301043020005B020318E22CAA
:1029C000121108003D00921D192D2000ED01162D59
:1029D0000F082000DC005C0CFD00FD0C7D0C0F39A5
:1029E000D6003D00901120005C19F92C5608C83E15
:1029F000FB2C5608CA3E8600013087018106560826
:102A0000031D052DB5269131102D7230DF005C308D
:102A1000E001E1000030E200E301E4011C25913116
:102A200020000430ED0A6D020318192D3D009019A5
:102A3000E82C2000121108006008003A0319442D08
:102A40007F3A0319512D562D572591312326913167
:102A50002000520A7F30031953060319332DD20A7E
:102A60000319D30A0800D201D30108005725013009
:102A70009031A5200800572502309031A52008008C
:102A80008B31FF2B8E31B52E5F08FF3E031C0800F3
:102A9000840075300402031808008D310435003EAF
:102AA00082005F08FF3A0319562D562D08003D009D
:102AB0008E1C8F2D01309A2508002100400341040F
:102AC000031D662D0130AE259131952D4B3040060A
:102AD0004104031D6F2D01309A259131952D003051
:102AE0004102973003194002031C952DC001C1011A
:102AF000952D210040034104031D822D0130AE2598
:102B00009131952D323040064104031D8B2D01304B
:102B10009A259131952D03304102B730722D200056
:102B20005B08203A03195D2D792D2100C00A031995
:102B3000C10A0800F000A22D22000E130800220096
:102B40008E1308007008003A0319AD2D013A0319DD
:102B50009C2D033A03199F2DAD2D0800F000B62DD2
:102B600022000E17080022008E1708007008003A95
:102B70000319C12D013A0319B02D033A0319B32DDE
:102B8000C12D080021005808031D08000130D8009D
:102B90005708031D08000130D700023020005806F6
:102BA000031DE52D210038088600390887004131D2
:102BB00081013808860039088700483081003808CC
:102BC00086003908870081170800580B080021008B
:102BD000D90120005A0A8600083087018100403060
:102BE000F000F1015A08023E86007008C03F7108EB
:102BF000C13F5A088600043081005A08860001301F
:102C000081172100D90020005008013EF00000305B
:102C1000513DF1007008860071088700083081007E
:102C20004030F000F1015008860051088700423121
:102C30007008C03F7108C13F5008860051088700E6
:102C400080308100080021004D08803AF00080307B
:102C50007002031D2D2E09304C020318342E210062
:102C6000CC0A0319CD0A08002100CC01CD01502E59
:102C7000031020000D1F03140030093D4B2E2000CF
:102C80000D1F452E2100D2014D2E02304B2E20006B
:102C90000D1F452E03302100D200D301772E3F2E89
:102CA0005308003A0319552E772E52088400043039
:102CB00004020318772E90310435003E8200031081
:102CC00020008D1E03140030093D722E20008D1E41
:102CD0006C2E2100D001742E0230722E20008D1E29
:102CE0006C2E03302100D000D101A52E662E510894
:102CF000003A03197C2EA52E5008840004300402EB
:102D00000318A52E90310435083E820003102000E0
:102D10000D1E03140030093D2100CE00CF01080034
:102D200020000D1E972E2100CE01CF010800023099
:102D30002100CE00CF01080020000D1E972E033089
:102D40002100CE00CF010800902E4F08003A031951
:102D5000AA2EB42E4E088400043004020318080082
:102D600090310435103E820008002D30D5005C08FB
:102D7000FD39031DED2E5C363F3909070907203E5A
:102D8000DA00D000FF39031D0030D10004305006B6
:102D9000D0005A0886008701010C890C0F390D3AC2
:102DA000031DEB2E4030860020005A08023E8400AE
:102DB0008501003FEA00013FEB006A0884006B08D0
:102DC00085000830EC006C080319EA2E12001E0082
:102DD000EC0BE62E0E298D31EA2DFD305C05EA0064
:102DE000043A031D0800F42E210038088600390833
:102DF00087000030011B0130F50004303806B800B0
:102E0000083020005B06031D112F42087F393D006A
:102E10009600160803190E2F10300F2F04302000D3
:102E2000DB00580B512F4830F300F4012100380823
:102E300086003908870042317308C03F7408C13FDB
:102E400066279131023020005906031D342F2100DE
:102E50003808860039088700043081003808860069
:102E600039088700811708007508031D442F2100C9
:102E70003808860039088700483081003808860005
:102E800039088700811708002100380886003908B2
:102E900087000830810038088600390887008117CC
:102EA00008002100AA1F632F2D082E040319612F8B
:102EB0000530A83E86008701413F8A00403F0A0056
:102EC00097312100AA132000D80108000830F20031
:102ED00000302100330208300319320203187C2F1E
:102EE0003208F20020005908031D782F01307B2F93
:102EF000590B7C2F0230D90072082100B202031C4A
:102F0000B3033808013EF0000030393DF10070088D
:102F10008600710887007208810048302000D700C1
:102F20002100311CA52FBA2F2000570886008701E9
:102F300021002F0884003008850000088100AF0AB6
:102F40000319B00A2000D70AF20372080319080017
:102F5000942F200057088600870121002F08840045
:102F60003008850000088100AF0A0319B00A20006C
:102F7000D70AF203720803190800A92F01302200B2
:102F8000A9070030AA3DAB3DAC3D21005A08031D06
:102F90000800D40A5408031D0800FF30D4000800BC
:102FA000181CEE2F20005A08860080308701010689
:102FB000031DEC2F21003808860039088700843073
:102FC0000106031DEC2F20005A0886000C308701F3
:102FD00081005A08860081173D00181090120800E1
:102FE000121510128E1401302100DA00D401753050
:102FF0002000DF00E001E101E201E301E4011C2D1A
:103000000534013409340634A1340134053407345D
:103010001934E0342934E7341534003425340134CC
:1030200075340134953408348134023495340134D4
:1030300075340834813403349534053475340134DF
:1030400005340834193401342934053491340234F8
:103050009534013475340334913403349534063493
:103060007534083415340034253465340534073498
:10307000193400342934653481340034C034343494
:1030800003344D3400346934003463340034723412
:1030900000346F34003463340034683400346934ED
:1030A0000034703400342034003454340034653437
:1030B000003463340034683400346E3400346F34C8
:1030C00000346C3400346F340034673400347934A5
:1030D000003420340034493400346E340034633416
:1030E00000342E34003409340234293400340134DD
:1030F00001340034C0343234093404340034003430
:1031000002340334013401340034093421341134DD
:1031100001340034013422343F34003407340534A0
:103120008134033408340034013407340534013465
:1031300003340834003401341C3403344B34003479
:103140006534003479340034623400346F34003430
:103150006134003472340034643400342034003478
:1031600044340034653400346D3400346F3400343A
:103170001234013400340234003400340034083492
:10318000D83404345534003401340034013402346A
:1031900000340134D03498343F3498349C3498341B
:0C31A000043403340934043473349834CC
:020000040001F9
:04000E00A4CFCFDFCD
:00000001FF
