:020000040000FA
:06120800000089310F29EE
:101210007E1489318A31B32289317E1009008931E7
:101220001129673084009A308500363086000230FC
:1012300087000C308F31FA2789312100E601E70160
:10124000E801E901EA012200ED01EE01EF01A03021
:101250008400013085004F3099311A2189312030C6
:10126000840002308500163099311A218931A0306E
:10127000840002308500403099311A2189312030B4
:10128000840003308500403099311A2189317E1065
:1012900020009A31842A20005203031D502951292D
:1012A0006B2950081F39003A031D572958296B290B
:1012B0002300B517033020005106031D6029612962
:1012C00067290130E60066082300E3006B2923004C
:1012D000E3016B296B2920005208031D7029712935
:1012E000B22A50081F39023A031D77297829B22AF9
:1012F00054080F39003A03197E297F29B22A54086D
:101300000F39E60003306602031887298829B22ABC
:10131000203022006E06031D8E298F29B22A230059
:10132000B5172000D41B95299629AC2954080F39EC
:101330000907AD3E860001308700403FEB00413F8A
:10134000EC0054080F39BC3E8600013087000108CC
:10135000E6006608EA00C22954080F390907A73ECB
:10136000860001308700403FEB00413FEC0054080D
:101370000F39BF3E8600013087000108E60066088D
:10138000EA00C2296A18C529C629D129FB30E6001E
:10139000FF30E7006B086605EB006C086705EC00A2
:1013A000D82904306B04EB0000306C04EC00D82921
:1013B000D41BDB29DC29E82954080F390907AD3E85
:1013C0008600013087006B08C03F6C08C13FF429DC
:1013D00054080F390907A73E8600013087006B08C3
:1013E000C03F6C08C13FF42903305106031DF929A1
:1013F000FA29222A6B0886006C088700811F012ABF
:10140000022A172AD41B052A062A0E2A54080F3945
:10141000BC3E8600013087008114172A54080F391A
:10142000BF3E8600013087008114172A172A6B08F7
:1014300086006C08870001156B0886006C08870021
:101440008117B22A04306B06EB0000306C06EC000A
:101450006B0886006C088700811F2F2A302A4D2ACE
:101460007F30E6006B0886006C08870066088105FF
:101470006B0886006C08870001170030E10005301A
:10148000E0006C08E3006B08E2000230E40000308A
:10149000E5009E3136268931542A20006B088600EB
:1014A0006C0887000117542A043020006B06EB00FB
:1014B00000306C06EC00EA185E2A5F2A672A6B0887
:1014C00086006C088700811F662A672A922AD41B2F
:1014D0006A2A6B2A732A54080F39BC3E86000130F1
:1014E000870081107A2A54080F39BF3E86000130E8
:1014F000870081103B30E6006B0886006C0887008F
:10150000660881050030E1000530E0006C08E3006A
:101510006B08E2000230E4000030E5009E31362620
:1015200089319C2A3B302000E6006B0886006C085D
:101530008700660881059C2A200054080F39983ED0
:10154000E600E7010E30E73D6608E8006708E900BD
:10155000FE30E60068088600690887006608810595
:10156000B22AB22A080022006E03031DB82AB92A43
:10157000C92A3D008E1ABD2ABE2AC92A900112141A
:10158000121602302100E30063082200EE00C92A8F
:10159000C92A3D00101DCD2ACE2ADC2A121DD12ACF
:1015A000D22ADC2AFB302100E30063083D009005CD
:1015B0009B317F238A31DC2A3D008E1CE02AE12A00
:1015C000E42A20001211ED2B101CE72AE82AFD2A3C
:1015D000121CEB2AEC2AFD2A97313A278A31210086
:1015E00012150430E30063082200EE00FE302100F3
:1015F000E30063083D009005FD2A101E002B012B1F
:10160000092B121E042B052B092B9B315F238A31DA
:10161000092B3D00101F0D2B0E2B3E2B121F112BE3
:10162000122B232B73302000E0000030E10000304B
:10163000E2000030E3000130E4000030E5009E31BC
:1016400036268A31232BBF302100E30063083D009A
:1016500090059B3123238A3123005F080319312B26
:10166000322B342B0130DF025F08031D382B392B5E
:101670003E2B923118228A313E2B3E2B3D00901E8C
:10168000422B432B4B2B921E462B472B4B2B9C3133
:1016900046248A314B2B3D00901C4F2B502B672B3F
:1016A000921C532B542B672BFF302000E0007F301F
:1016B000E1000030E2000030E3000130E4000030DF
:1016C000E5009E3136268A313D009301672B0430B8
:1016D00022006E0203186D2B6E2B712B200012114D
:1016E000ED2B3D00921D752B762BEB2B2000EF018F
:1016F00004306F02031C7D2B7E2B802BEB2BEB2BFE
:101700003D00901D842B852BEB2B0F082100E3005F
:101710006308EA006A0CE300E30C630C0F39E40091
:1017200064082300E100F7302100E30063083D0076
:10173000900521006A199D2B9E2BB02B2300610878
:10174000BC3E860001308700010801392100E3001A
:101750000130E30601086306FE3963068100C22BEF
:1017600023006108BF3E860001308700010801396F
:101770002100E3000130E30601086306FE39630639
:101780008100C22B23006108031DC72BC82BCC2B63
:101790009F3131278A31DE2B72302000E00000308B
:1017A000E100EA30E2000030E3000030E400E50050
:1017B0009E3136268A31DE2BDE2BEB2B01302100C9
:1017C000E30063082000EF0704306F02031CE92BDD
:1017D000EA2B802BEB2B2000121108002030220076
:1017E0006E020318F42BF52BF72B0D2D0D2D3D005C
:1017F0008E1CFB2BFC2BFE2B0D2D0D2D01309E3155
:10180000DC268B31013A031D062C072C1D2C2300EE
:101810005408031D0C2C0D2C602C21006808031D9E
:10182000122C132C602C3E309D31B3258B312300BC
:10183000D401D40A602C602C602C02309E31DC264E
:101840008B31013A031D252C262C3C2C23005408F7
:10185000031D2B2C2C2C602C21006808031D312C1F
:10186000322C602C3A309D31B3258B312300D401CA
:10187000D40A602C602C602C03309E31DC268B3126
:10188000013A031D442C452C5B2C23005408031DF6
:101890004A2C4B2C602C21006808031D502C512C25
:1018A000602C36309D31B3258B312300D401D40A0E
:1018B000602C602C602C2300D401602C602C602CE8
:1018C00021006808031D652C662C0A2D4030240079
:1018D000C20042082100E500A030903165208B3124
:1018E0002400C3004308C400C501AA2C982C782CFE
:1018F0004508A03E8600023087000108C200450866
:10190000203E86000330870042088100A52C450850
:10191000A03E8600023087000108013EC200450853
:10192000203E86000330870042088100A52CA52CAC
:101930004508A03E86000230870001080A3A0319D4
:10194000782C073A0319782C872C0130C200420802
:10195000C507AA2C44084502031CAF2CB02C982CB8
:10196000B12CC501F32CD32C01309A31E8228B31F4
:10197000ED2C01309A31CB228B31ED2C02309A3193
:10198000E8228B31ED2C02309A31CB228B31ED2CB9
:1019900003309A31E8228B31ED2C03309A31CB227F
:1019A0008B31ED2CED2C24004508A03E8600023042
:1019B00087000108313A0319B42C033A0319B92CF2
:1019C000013A0319BE2C073A0319C32C013A031933
:1019D000C82C033A0319CD2CED2C01302400C20091
:1019E0004208C507F32C44084502031CF82CF92CC7
:1019F000D32CFA2C44080319FE2CFF2C0A2D440882
:101A0000C20042082100E50020309B3141238B3188
:101A10000A2D0A2D8E3126268B31080023004D0811
:101A2000803AF00080307002031D182D09304C02FE
:101A300003181B2D1C2D222D01302300CC07003054
:101A4000CD3D252E2300CC01CD01672D03102000B4
:101A50000D1F03140030093DF000F1017008230050
:101A6000D2007108D300BC2D20000D1F382D392D58
:101A70003D2D2300D201D301BC2D02302300D20022
:101A80000030D300BC2DBC2D20000D1F482D492D4A
:101A90004F2D03302300D2000030D300BC2D023084
:101AA0002300D2000030D300BC2DBC2D20000D1F20
:101AB0005A2D5B2D5F2D2300D201D301BC2D0230A6
:101AC0002300D2000030D300BC2DBC2DBC2D530808
:101AD000003A03196C2DBC2D5208003A0319262D2B
:101AE000013A0319342D033A0319442D013A03191D
:101AF000562DBC2DBC2D031020008D1E031400306C
:101B0000093DF000F10170082300D0007108D100F8
:101B1000112E20008D1E8D2D8E2D922D2300D00193
:101B2000D101112E02302300D0000030D100112E3F
:101B3000112E20008D1E9D2D9E2DA42D03302300DF
:101B4000D0000030D100112E02302300D000003030
:101B5000D100112E112E20008D1EAF2DB02DB42DD1
:101B60002300D001D101112E02302300D00000301B
:101B7000D100112E112E112E5108003A0319C12D3A
:101B8000112E5008003A03197B2D013A0319892DB3
:101B9000033A0319992D013A0319AB2D112E112E79
:101BA000031020000D1E03140030093DF000F10168
:101BB00070082300CE007108CF00252E20000D1ED6
:101BC000E22DE32DE72D2300CE01CF01252E02309B
:101BD0002300CE000030CF00252E252E20000D1E24
:101BE000F22DF32DF92D03302300CE000030CF006D
:101BF000252E02302300CE000030CF00252E252ECA
:101C000020000D1E042E052E092E2300CE01CF012B
:101C1000252E02302300CE000030CF00252E252EA9
:101C2000252E4F08003A0319162E252E4E08003A8D
:101C30000319D02D013A0319DE2D033A0319EE2DB5
:101C4000013A0319002E252E252E0800210012111D
:101C500023004408450403192E2E2F2E3A2E440843
:101C6000860045088700811F362E372E3A2E210028
:101C70001215232F033021006806031D402E412E2C
:101C8000432EE801432E6808031D472E482E4A2E96
:101C90001215232F02306806031D4F2E502E6A2E78
:101CA0002200E001E00A0030E1000030E200E30140
:101CB00002309431AF248E31220061082300C50028
:101CC000220060082300C40003302100E5006508FD
:101CD000E800212F6803031D6E2E6F2E212F413047
:101CE00023005702031C752E762E7D2E40302100D6
:101CF000E50065082200EC00852E2300570821002E
:101D0000E50065082200EC00852E6C03FF3A2300F5
:101D100057072100E50065082300D700A030210007
:101D2000E50065082300C80022006C082100E500DA
:101D300065082200EB0023005608031DA02EA12EEB
:101D4000E42EBF2EBF2E23004A0886004B088700D2
:101D500001082100E50023004808860087012100D2
:101D6000650881000130E50065082300C8070130DF
:101D7000CA070030CB3D01302200EB02BF2E22000B
:101D80006B08031DC42EC52EA32EEC2EEC2EE42EC4
:101D900023004A0886004B08870001082100E5005F
:101DA0002300480886008701210065088100013072
:101DB000E50065082300C8070130CA070030CB3DA5
:101DC00001302200EB02E42E22006B08031DE92EF5
:101DD000EA2EC82EEC2EEC2E23005708031DF12E00
:101DE000F22E062F403022006C06031DF82EF92E2D
:101DF000FF2E02302100E5006508E800062F0330C1
:101E00002100E5006508E800062F062F2200E0010A
:101E1000E00AA030E1000030E2006C082100E5009B
:101E200065082200E30002309431AF248E31220095
:101E300061082300C500220060082300C400212F90
:101E4000212F210012150800210012113D009301DD
:101E5000900198010E302200E1009930E000E2018B
:101E600002306202031C352F362F382F4E2F4E2F93
:101E7000600886006108870081010130E0070030BA
:101E8000E13D01302100E50065082200E207023053
:101E90006202031C4C2F4D2F382F4E2F16303D0061
:101EA00091009F3097007B3092002200E3010C30BC
:101EB0006302031C5C2F5D2F5F2F7C2F7C2F630838
:101EC0002100E5000130E535FF3E031D632F653538
:101ED000203E860087010030C03F0030C13FC23F36
:101EE000C33F0130E50065082200E3070C306302C0
:101EF000031C7B2F7C2F5F2F3D000E1796010E12C7
:101F00000E13822FF7302100E50065083D00900593
:101F10002300B501A201A301A4013D009019912F56
:101F2000922F822F932F01302100E50065082300B6
:101F3000DD0001302100E50065082300DC00DB0145
:101F4000DA01E2012200E30103306302031CA92F3E
:101F5000AA2FAC2FD52FD52F6335A73E8600013091
:101F600087000030C03FC13F6335AD3E8600013081
:101F700087000030C03FC13F6308BF3E860001308C
:101F8000870081016308BC3E860001308700810123
:101F900001302100E50065082200E30703306302F9
:101FA000031CD32FD42FAC2FD52F28302300A7000C
:101FB0000030A80016303D00980000302000A3003B
:101FC0005030A2000830A10004302100E50065086F
:101FD0002000A000A0172200EF0100302300BB006A
:101FE0000030BA000030B9000030B800D90122003A
:101FF000EE010800FE0012001E00FE0BFB2F003455
:102002002300DB01DA01023022006D06031D0A28DB
:102012000B28312821006608013EF3000030673D9D
:10202200F400730886007408870008308100583075
:10203200F3000030F400660886006708870042312A
:102042007308C03F7408C13F6608860067088700AE
:102052004830810066088600670887008117642877
:102062002300370820005702031D3B2823003608AF
:102072002000560203183E283F284728570823000D
:10208200B700200056082300B60047289231962256
:1020920090315830F3000030F40023002708860006
:1020A2002808870042317308C03F7408C13F2708DF
:1020B2008600280887004830810027088600280803
:1020C20087008117642808002300EF00D801460822
:1020D200470403196D286E287728460886004708AA
:1020E2008700811B75287628CC2877284608860029
:1020F2004708870041312100650801020318822840
:10210200832890282300460886004708870041312B
:1021120001082200EB006B082100E5009028230053
:10212200D801AC285808203E8600013087000108FB
:102132002200EB00230058086F072200EC006C0815
:102142008600023087006B0881000130EB006B08CB
:102152002300D807AC282100650823005802031C7D
:10216200B328B4289328B5282200E0012030E100EA
:102172000130E2004030EB006B08E30002309431A2
:10218200AF249031220061082300C70022006008BA
:102192002300C600CC285808CE2808003D008E1C1B
:1021A200D328D4282E2904309A3195229031392906
:1021B20039292E29230042034304031DE128E22882
:1021C200E72804309A31B022903134294B30230071
:1021D20042064304031DEE28EF28F42804309A3106
:1021E200952290313429003023004302973003199D
:1021F2004202031CFD28FE283429C201C3013429EE
:10220200342934293429230042034304031D0A29B3
:102212000B29102904309A31B022903134293230FE
:10222200230042064304031D172918291D290430DF
:102232009A31952290313429033023004302B7307A
:1022420003194202031C262927293429C201C3018A
:102252003429342934293429342922006E08203AB9
:102262000319DB28042901302300C2070030C33DD3
:102272000800200050081F39013A03194129422958
:102282004429A829A829500E890C0339013A0319B7
:102292004B294C294E29A829A82954080319522947
:1022A2005329962954030319572958299629A829ED
:1022B200A82996292E302300B3000230B400003042
:1022C200B7000830B6003514B517A8292E30230000
:1022D200B3000230B400B517A82920005708230024
:1022E200A400200056082300A300E630F000700886
:1022F200A000A501A601A217A829E6302300B30079
:102302000130B4000030B7000730B600C130F00031
:102312007008B500A82920005208F00070082300B8
:10232200D500B517A829A829A82920005108003AE4
:1023320003195B29013A03196729213A03196E2906
:10234200013A03197E29033A03198C29A8290800A6
:102352002000500E890C0339003A0319B129B22921
:102362000C2A172A172A0C2A2300B5170830200036
:10237200ED006D082200EE00172A93319823913167
:10238200172A95313E259131172A6F302300B30069
:102392000130B400351401302000ED006D08230037
:1023A200B600B517172A9F3197279131172AD929D5
:1023B20089314B219131172A20005408ED3E230028
:1023C200B3000130B400351401302000ED006D0877
:1023D2002300B600B517172A2300B51720005208AC
:1023E200ED005408ED3E8600013087006D08810043
:1023F200172A0030E1000230E0000030E200003035
:10240200E3000030E400E5009E3136269131172AC0
:10241200172A172A172A2000510884000D300402B7
:102422000318172A98310435AB3E820008002300B6
:102432005D08031D1D2A1E2A952A0130F00070082E
:10244200DD005C08031D262A272A952A0130F000A8
:102452007008DC00023022006D06031D312A322A88
:10246200452A230027088600280887004131810178
:102472002708860028088700483081002708860040
:10248200280887008117952A22006D03031D4A2A16
:102492004B2A952A2300E0010830F0002100690A46
:1024A20086008701700881005030F0000030F10092
:1024B2006908023E860087017008C03F7108C13F6B
:1024C2000430F000690886008701700881006908FD
:1024D2008600870181170130F00070082300E000B8
:1024E20021006608013EF0000030673DF1007008EF
:1024F200860071088700083081005030F0000030FB
:10250200F100660886006708870042317008C03F04
:102512007108C13F66088600670887008030810025
:10252200952A952A952A952A08000830F000700805
:10253200F200003023003702083003193602031874
:10254200A32AA42ABD2A3608F0007008F200650802
:10255200031DAC2AAD2AB22A0130F0007008E50052
:10256200BD2A6503031DB62AB72ABD2A0230F00030
:102572007008E500BD2ABD2A7208F000F10170085A
:10258200B6027108B73B2708013EF0000030283D33
:10259200F1007008860071088700720881005830C7
:1025A200F0007008E4003518D72AD82A0E2BF02A3A
:1025B200F02A33088400340885000008F00064081B
:1025C20086008701700881000130B3070030B43DF6
:1025D2000130F0007008E4070130F202F02A7208BC
:1025E200031DF42AF52ADA2A152B152B0E2B330894
:1025F2008400340885000008F00064088600870122
:10260200700881000130B3070030B43D0130F000A2
:102612007008E4070130F2020E2B7208031D122B20
:10262200132BF82A152B152B0800230027088600E8
:10263200280887000030011B0130F500043027060E
:10264200A70000302806A800083022006E06031DED
:102652002B2B2C2B432B200052087F393D00960058
:1026620016080319352B362B3C2B1030F300730858
:102672002200EE00432B0430F30073082200EE0028
:10268200432B432B6D03031D472B482B8B2B5830B9
:10269200F3000030F4002300270886002808870092
:1026A20042317308C03F7408C13F92319622933180
:1026B200023023006506031D5F2B602B6C2B27085D
:1026C2008600280887000430810027088600280831
:1026D20087008117972B7508031D702B712B7D2B9B
:1026E20027088600280887004830810027088600CE
:1026F200280887008117972B27088600280887005B
:102702000830810027088600280887008117972B48
:10271200972B972B2300A21F8F2B902B942B2508EE
:102722002608A213942B2200ED01972B080080307B
:1027320020005006031D9E2B9F2B202CC030F00042
:1027420070082300B500132CC5302300B300983065
:10275200B4000030B7001230B600202C200052081E
:10276200031DB42BB52BE42B5208F000F101F03518
:10277200F10D2430700784009930713D8500003FCF
:102782002300B300013FB4003408F1003308F00025
:1027920002307007840071080318710A850000086E
:1027A200F2007208B6003408F1003308F00003307A
:1027B2007007840071080318710A85000008F2008E
:1027C2007208B700202C2300B501202C202C0330E6
:1027D200200052020318EE2BEF2B0B2C5208F000B4
:1027E200F101F035F10D1430700784009930713D1C
:1027F2008500003F2300B300013FB400330884008A
:10280200340885000008F000F1017008B600710874
:10281200B700202C2300B501202C202C2300B50169
:10282200202C202C20005308013A0319A52B033A2F
:102832000319AF2B013A0319E82B0F2C202C0800A7
:10284200F80070080319262C272C312C7835A73E66
:10285200860001308700403FF900413FFA003B2CDF
:102862007835AD3E860001308700403FF900413F98
:10287200FA003B2C79087A04031D402C412C452C8C
:10288200F001F101AE2CAE2CFF307105F4007F3067
:102892007205F500790886007A08870042317408CB
:1028A200C03F7508C13F7908013EF40000307A3D0F
:1028B200F5007408860075088700730881004030AF
:1028C200F400790886007A0887007408810579087F
:1028D20086007A0887008115790886007A088700C1
:1028E200811770080319762C772C902C7835A73E27
:1028F200860001308700403FF400413FF50004307C
:102902007406F60000307506F7007835A73E86009B
:10291200013087007608C03F7708C13FA92C78357F
:10292200AD3E860001308700403FF400413FF50094
:1029320004307406F60000307506F7007835AD3EB7
:102942008600013087007608C03F7708C13FA92C76
:102952007A08F1007908F000AE2C08002200E800A5
:1029620060080319B52CB62CC02C6835A73E86002A
:1029720001308700403FE900413FEA00CA2C683538
:10298200AD3E860001308700403FE900413FEA004A
:10299200CA2C69086A04031DCF2CD02CD42CE00168
:1029A200E1013D2D3D2DFF306105E4007F306205E0
:1029B200E500690886006A08870042316408C03F62
:1029C2006508C13F6908013EE40000306A3DE50048
:1029D2006408860065088700630881004030E400CF
:1029E200690886006A08870064088105690886000C
:1029F2006A0887008115690886006A0887008117BE
:102A020060080319052D062D1F2D6835A73E860087
:102A120001308700403FE400413FE5000430640696
:102A2200E60000306506E7006835A73E8600013003
:102A320087006608C03F6708C13F382D6835AD3E44
:102A4200860001308700403FE400413FE50004304A
:102A52006406E60000306506E7006835AD3E860094
:102A6200013087006608C03F6708C13F382D6A08F9
:102A7200E1006908E0003D2D08002300B5170E3083
:102A82002000E8009930E700E90102306902031CE6
:102A92004B2D4C2D4E2D622D622D67088600680845
:102AA200870081010130E7070030E83D0130E60090
:102AB2006608E90702306902031C602D612D4E2D64
:102AC200622D2030F0000030F1000030F200F300FF
:102AD2003030F4000030F5009B31052395313D0084
:102AE2000E172000EA0103306A02031C792D7A2DA9
:102AF2007C2D932D932D6A08BF3E860001308700FE
:102B020081016A08BC3E86000130870081010130E4
:102B1200E6006608EA0703306A02031C912D922D33
:102B22007C2D932DED30F0000130F1000030F200E9
:102B3200F3000230F4000030F5009B31052395319B
:102B42003D000E1328302300A7000030A8002030DB
:102B52002000E60066082100E9006908E600FF3966
:102B6200031D0030E70020005208E600660822003C
:102B7200EF006F08031DBE2DBF2DC62D10302000A3
:102B8200E60066082200EE00DD2D00302000E100A4
:102B92000130E0006F30E2000130E3000130E40078
:102BA2000030E5009E313626953120302000E600C7
:102BB20066082200EE00DD2D08003D000E12230003
:102BC200B51BE42DE52D2F2EA21FE82DE92DFC2D9E
:102BD2000230F50075082200ED0023005A08031D9B
:102BE200F32DF42DF82D903101209531F82D23008D
:102BF200DC01DD01882E21006608013EF50000306F
:102C0200673DF60075088600760887000830810067
:102C12005030F5000030F60066088600670887002D
:102C220042317508C03F7608C13F660886006708D2
:102C320087000C30810066088600670887008117CC
:102C4200230027088600280887000430810027080F
:102C52008600280887008117882E882E2000D01F22
:102C6200332E342E502E0130F50075082200ED006F
:102C720023005B08031D3E2E3F2E432E9031012080
:102C82009531432E2300DC01DD015E08031D4A2E2F
:102C92004B2E882E923118229531882E882E0230A2
:102CA200F50075082200ED0021006608013EF500DE
:102CB2000030673DF6007508860076088700083008
:102CC20081005030F5000030F60066088600670883
:102CD200870042317508C03F7608C13F660886000A
:102CE200670887000430810066088600670887004D
:102CF20081172300DC01DD015E08031D812E822E77
:102D0200882E923118229531882E882E882E08001E
:102D12002100690886008701413FF5007508F2002D
:102D2200F301730823002402031D992E7208230263
:102D320003189C2E9D2EA12E2308F2007208F50086
:102D42007508F200F3017208A3027308A43BF401B0
:102D5200BF2E7408583E860087010108F200200841
:102D6200860001308700720881000130F20072088B
:102D7200A0070130F2007208F407BF2E7508740232
:102D8200031CC42EC52EAA2EC62E23082404031902
:102D9200CB2ECC2E062F21006608013EF200003019
:102DA200673DF300720886007308870008308100CF
:102DB2005830F2000030F30066088600670887008A
:102DC20042317208C03F7308C13F6908860087011B
:102DD200011BEC2EED2EF92E66088600670887008F
:102DE2004830810066088600670887008117392FFE
:102DF200660886006708870008308100660886003A
:102E0200670887008117392F392F21006608013E94
:102E1200F2000030673DF3007208860073088700F5
:102E2200083081005030F2000030F300660886005E
:102E32006708870042317208C03F7308C13F6608C5
:102E420086006708870004308100660886006708EC
:102E520087008117230025082608A2135E08031D98
:102E6200332F342F392F923118229631392F392F9F
:102E72000800210012113D009301900198010E30CB
:102E8200F2009930F100F30102307302031C4A2F61
:102E92004B2F4D2F612F612F71088600720887001A
:102EA20081010130F1070030F23D0130F00070087D
:102EB200F30702307302031C5F2F602F4D2F612F27
:102EC20016303D0091009F3097007B309200F40154
:102ED2000C307402031C6E2F6F2F712F8C2F8C2FCE
:102EE2007408F0000130F035FF3E031D742F703579
:102EF200203E860087010030C03F0030C13FC23F04
:102F0200C33F0130F0007008F4070C307402031C58
:102F12008B2F8C2F712F3D000E1796010E120E1360
:102F2200922FF730F000700890052300B501A2013E
:102F3200A301A4013D0090199F2FA02F922FA12F32
:102F42000130F00070082300DD000130F00070084D
:102F5200DC00DB01DA01E201F40103307402031C3C
:102F6200B32FB42FB62FDD2FDD2F7435A73E860089
:102F7200013087000030C03FC13F7435AD3E86004E
:102F8200013087000030C03FC13F7408BF3E860059
:102F92000130870081017408BC3E86000130870041
:102FA20081010130F0007008F40703307402031C41
:102FB200DB2FDC2FB62FDD2F28302300A7000030B7
:102FC200A80016303D00980000302000A3005030C9
:102FD200A2000830A1000430F0007008A000A01781
:102FE2002200EF0100302300BB000030BA000030A5
:102FF200B9000030B800D9012200EE0108000934FE
:10300200023443340034023401340034C0343234E4
:1030120009340434003400340134023402340134FB
:10302200003405342434003410340134043424349C
:1030320002340234053424340634003401340534B5
:103042002434013400340134073405348134033428
:1030520008340034023409340434013400340234B4
:103062000A340034003400340734053402340234A4
:10307200403400340034073405348234023440349E
:1030820000340034343403344334003444340034E0
:103092004334003420340034523400345334003486
:1030A2002D340034323400343334003432340034BA
:1030B20020340034453400346D3400347534003427
:1030C2006C340034613400347434003469340034B4
:1030D2006F3400346E34003420340034443400340D
:1030E200653400346D3400346F34003434340334C6
:1030F2004D340034693400346334003472340034A3
:103102006F3400346334003468340034693400347A
:1031120070340034203400345434003465340034C4
:1031220063340034683400346E3400346F34003455
:103132006C3400346F340034673400347934003432
:1031420020340034493400346E34003463340034A3
:103152002E3400349131D4299131D9299231172A50
:103162009131D9299231172A9131B5299131BE294C
:103172009131FA299131C6299131C2299131DD2942
:103182009131ED299231172A12340134003402347C
:103192000234003400340834D83404340A3400349D
:1031A2000034013401340234003401349C31452CA2
:1031B2009C311C2C9C31232C9C312A2C9C31312C8F
:1031C2009B31042B9A31EB2A9A31EE2A9A31F12A59
:1031D2009A31F42A9A31E72A9A31CE2A9A31D12A9F
:1031E2009A31D42A9A31D72A9C31182C9B31F02B50
:0C31F2009B31F72B9B31FE2B9C31052CF0
:103200009A31CA2A9A31B22A9A31B52A9A31B82A01
:103210009A31BB2A9A31AF2A9A31972A9A319A2A3F
:103220009A319D2A9A31A02A2034993477349834DF
:1032300043349834640080010131890B1B29003428
:0C3240000434033409340434003498349E
:1034CE0033340D340A34003432340D340A340034BB
:1034DE0031340D340A3400342300EA010830F00090
:1034EE007008EC00EB010030E9000030E8002530F8
:1034FE00E7008030E600D401080000309D31082539
:10350E009A318F3124279A319B31A3239A318B31F3
:10351E00EE239A318E2A8E2A89310F29F000A52AA0
:10352E0022008E15AF2A22000E17AF2A22008E1708
:10353E00AF2A22000E16AF2AAF2AAF2A70088400D7
:10354E00053004020318AF2A993104350A3E820071
:10355E000800F000C02A22008E11CA2A22000E1383
:10356E00CA2A22008E13CA2A22000E12CA2ACA2A78
:10357E00CA2A70088400053004020318CA2A993139
:10358E000435003E820008002100E500DC2A2200FE
:10359E008E15E72A22000E17E72A22008E17E72A39
:1035AE0022000E16E72AE72AE72A21006508840082
:1035BE00053004020318E72A98310435EB3E8200E9
:1035CE0008002100E500F92A22008E11042B2200AA
:1035DE000E13042B22008E13042B22000E12042B2A
:1035EE00042B042B21006508840005300402031807
:1035FE00042B98310435E13E820008007108F70073
:10360E007008F600152B760886007708870072087A
:10361E0081000130F6070030F73D152B0130F40222
:10362E000030F53B740A031D202B750A031D202B59
:10363E00212B0A2B222B080001302300B807003063
:10364E00B93D0030BA3D0030BB3D6208031D302B42
:10365E00312B402B0130F0007008D9075908031D9B
:10366E00392B3A2B402BFF30F0007008D900402B3D
:10367E00402B08002200E100210012116808031DF2
:10368E00492B4A2B5D2B220061082300CA00033010
:10369E00CB00210065082200E00060082300D7005F
:1036AE00D601D60A2100E801E80A5D2B12150800A2
:1036BE003D001215EF302000E60066083D00900533
:1036CE008E1401302000E60066082300E200D901C6
:1036DE0075302000E0000030E1000030E2000030E4
:1036EE00E3000030E400E5009E3136269B310800F1
:1036FE002300E20174302000E0000030E1000030D1
:10370E00E2000030E3000030E400E5009E31362692
:10371E009B313D008E1012119B2BFB302000E600DA
:10372E0066083D0090059B2B10199E2B9F2B942B0A
:10373E00A02B2300D901080022006E08031DA82B20
:10374E00A92BC62B3D008E019201163091009F30A1
:10375E0097007B309200210012150B178B17B82B98
:10376E008E153D008E1DBC2BBD2BB72BBE2B0130F5
:10377E002100E50065082200EE00C62BC62B0800CE
:10378E00FC00771DCB2BCC2BD22BF0017C089D316E
:10379E00F1259B31D22BF71CD52BD62BDD2BF0012F
:1037AE00F00A7C089D31F1259B31DD2B7C08983E7B
:1037BE00F800F9010E30F93D7808FA007908FB009F
:1037CE007A0886007B088700770881000800F100E0
:1037DE000E2C01309A3195229B3121008E11182C1E
:1037EE0002309A3195229B3121000E13182C033092
:1037FE009A3195229B3121008E13182C04309A3168
:10380E0095229B3121000E12182C182C182C7108A1
:10381E008400053004020318182C98310435F53E47
:10382E00820008002200E0003A2C01309A31CB22AF
:10383E009C3121008E11452C02309A31CB229C31C5
:10384E0021000E13452C03309A31CB229C312100DE
:10385E008E13452C04309A31CB229C3121000E124E
:10386E00452C452C452C22006008840005300402AE
:10387E000318452C98310435D73E820008003D00D0
:10388E00181C4A2C4B2C702C2100690886008701CD
:10389E0080300106031D542C552C6D2C2300270857
:1038AE0086002808870084300106031D5F2C602CDB
:1038BE006D2C0C30F000210069088600870170081D
:1038CE00810069088600870181176D2C3D00181054
:1038DE00702CDF30F0007008900508002100E50024
:1038EE00942C95130D1724000D172300D201D3012C
:1038FE00A32C8D1623008D1224008D162300D001CB
:10390E00D101A32C0D1623000D1224000D16230039
:10391E00CE01CF01A32CA32CA32C21006508003AC5
:10392E000319A32C013A0319782C033A0319802C9E
:10393E00013A0319892CA32C0800F000C52C210094
:10394E0095130D1724000D172300D201D301D32C8C
:10395E0021008D1623008D1224008D162300D00118
:10396E00D101D32C21000D1623000D1224000D16AB
:10397E002300CE01CF01D32CD32CD32C7008003AC8
:10398E000319D32C013A0319A62C033A0319AF2CB1
:10399E00013A0319B92CD32C0800F200FC2CFC3090
:1039AE0021009900903027009B0001309B31EE23BF
:1039BE009C3102309B31EE239C3103309B31EE2340
:1039CE009C3104309B31EE239C3101309C31A42478
:1039DE009C3102309C31A4249C3103309C31A424B0
:1039EE009C31072D072D072D072D7208003A03195C
:1039FE00D62C013A0319072D033A0319072D072D6B
:103A0E0008002200E100312DFC3021009900903099
:103A1E0027009B0001309C3119249D3102309C31CE
:103A2E0019249D3103309C3119249D3104309C3171
:103A3E0019249D3101309C3175249D3102309C3109
:103A4E0075249D3103309C3175249D313D2D3D2DC6
:103A5E003D2D3D2D22006108003A03190B2D013A30
:103A6E0003193D2D033A03193D2D3D2D080000305D
:103A7E002300E9000030E8004B30E7000030E6009C
:103A8E00EA01EB010830FD007D08EC00D8011A3088
:103A9E00FD007D08F70001309B31C7239D311E309C
:103AAE00FD007D08F70002309B31C7239D31F001E8
:103ABE002030F1000130F2004030FD007D08F300AF
:103ACE000230943121249D3171082300C700700803
:103ADE00C600C401C5012100E80108000230220021
:103AEE006D06031D7B2D7C2D802D963189269D31F3
:103AFE00B22D2200ED0123006008031D872D882DB5
:103B0E00AE2D21006608013EF6000030673DF7003D
:103B1E007608860077088700083081005030F6005E
:103B2E000030F70066088600670887004231760885
:103B3E00C03F7708C13F66088600670887000C30D3
:103B4E00810066088600670887008117B22D230062
:103B5E00E001B22DB22D08002200E2002100121168
:103B6E0068080319BB2DBC2DBE2D1215F02D220099
:103B7E00E10162082100E50065082200E000C72D82
:103B8E0001302100E50065082200E107610A031DEE
:103B9E00D12DD22DD42DDF2DDF2D600886000230E1
:103BAE008700E00A0108031DDD2DDE2DC72DDF2D58
:103BBE0062082300CA000230CB00220061082100F7
:103BCE00E50065082300D700D6012100E801E80AC8
:103BDE0012150800F5002030F1007108F60070088B
:103BEE00F1000130F135890BF92D7508F200013025
:103BFE00F235FF3E031DFF2D72357107F3000130C4
:103C0E00F335FF3E031D072E7335F4007408F607D7
:103C1E0076088600870181137008031D172E182E53
:103C2E00222E7535AD3E8600013087007608C03FE6
:103C3E000030C13F2C2E7535A73E8600013087001F
:103C4E007608C03F0030C13F2C2E760886008701D3
:103C5E0001137608043E86008701011708005F2EC7
:103C6E00872E9031CF209E318D310E259E31872E9D
:103C7E009031CF209E3101309C31D4249E31872E3D
:103C8E009031CF209E3102309C31D4249E31872E2C
:103C9E009D313E259E319A3173229E31872E872E7D
:103CAE0091313A219E31872E872E872E872E872E91
:103CBE0020006108003A0319682E7F3A0319822EFC
:103CCE00872E6008013A03194F2E033A0319872EE7
:103CDE00013A0319572E063A0319872E773A03191C
:103CEE00872E013A0319382E073A0319472E013A47
:103CFE0003193F2E872E6008FF3A0319872E872E51
:103D0E0008002300E501DE01DB01DA01E0012200FB
:103D1E00ED017F302000EE002300270886002808E2
:103D2E00870020006E088105043023002706A700B7
:103D3E0000302806A8007F302000EE002300270860
:103D4E0086002808870020006E08810504302300B5
:103D5E002706A70000302806A8007F302000EE00BE
:103D6E002100660886006708870020006E0881051E
:103D7E002300B501B601B701A201A301A40191313F
:103D8E00A9219E3100302000E1000330E000003018
:103D9E00E2000030E3000030E400E5009E313626FC
:103DAE009E319531DE259E3108002200E0001F2F46
:103DBE0023005308803A2100E50080306502031D80
:103DCE00EB2E0230230052020318EE2EF02E01309D
:103DDE00F12E0030302F302F23005108803A210071
:103DEE00E50080306502031DFF2E023023005002D5
:103DFE000318022F042F0130052F0030302F302FE3
:103E0E0023004F08803A2100E50080306502031D33
:103E1E00132F023023004E020318162F182F0130D5
:103E2E00192F0030302F302F0030302F302F2E2F03
:103E3E0022006008003A03191B2F013A0319DF2EE6
:103E4E00033A0319F32E013A0319072F2E2F0030D0
:103E5E00302F08002D302100E00060082300DF0025
:103E6E0021006A08FD39031D3D2F3E2F872F6A362C
:103E7E003F39E0000130E035FF3E031D422F603533
:103E8E00203EE1006108E9006908E600FF39031DE4
:103E9E000030E70004306606E60000306706E700F3
:103EAE00690886008701010C890C0F390D3A031D34
:103EBE00612F622F822F5030860087017D2F2100C7
:103ECE006908023E84008501003FE000013FE100E9
:103EDE0060088400610885000830E200620803195A
:103EEE007E2F12001E00E20B782F7E2F662F9E3142
:103EFE0088269F31962F9D3175259F31962F962FAF
:103F0E00FD3021006A05E00004306006031D902F8D
:103F1E00912F962F933116239F31962F962F0800AF
:103F2E002000D801D901E42F2300B517A12F2000BE
:103F3E005814A12F23006303031DA62FA72FF02FC4
:103F4E002000D814F02FF02F2300B517F02F2300E8
:103F5E00B5172000D41BB42FB52FC12F54080F391D
:103F6E000907AD3E860001308700403FF100413F1A
:103F7E00F200CD2F54080F390907A73E86000130F5
:103F8E008700403FF100413FF200CD2F71088600BF
:103F9E0072088700811FD42FD52FF02F710886004D
:103FAE0072088700011DDC2FDD2FF02F0130F0008D
:103FBE007008D800F02FF02FF02F50081F39003A5C
:103FCE0003199B2F013A0319AB2F033A0319AE2F96
:103FDE00F02F2300B51FF42FF52FFF2F5830B3000D
:103FEE000030B40035140230F0007008B600FF2F18
:023FFE000800B9
:020000040001F9
:04000E00A4CFCFDFCD
:00000001FF
