:040000008031102813
:100008007E14803120007F08E50082317F222000A5
:100018006508FF007E1009008031122866308400D0
:10002800003085000A30973199278031A830840044
:100038000030850033309731992780312130840092
:10004800013085001430973199277E1020009731B0
:10005800CB2F2100ED01EE01203020006C02031CA3
:1000680008003D008E1C442801308A31982208007F
:10007800200069082100C500200068082100C4008C
:100088002000690821004506031D4E282000680845
:1000980021004406031D3C284209E6004309E70005
:1000A800E60A0319E70A44086607EB004508673DB6
:1000B800EC00EC1F72284209E6004309E700E60A53
:1000C8000319E70A44086607E8004508673DE900A0
:1000D8006808FF3EEB007F30693DEC006C08803A11
:1000E800E60093306602031D7B2889306B02031CEF
:1000F800842821004408783EC200EC30453DC30006
:10010800220029082A0403198F28290886002A08AA
:100118008700811B3C2900302100DB00DC0008300F
:10012800DD000030DE00A0308831B12080310130A0
:100138008A3198228031013A031DAF28043021000A
:10014800E6006D08A23E860087016608810001303E
:10015800ED070030EE3D02308A3198228031013AB5
:10016800031DC32805302100E6006D08A23E860065
:100178008701660881000130ED070030EE3D03304D
:100188008A3198228031013A031DD7280630210090
:10019800E6006D08A23E86008701660881000130EE
:1001A800ED070030EE3D2100EA01EF0108306F0253
:1001B8000318F6286F08A03E860087016F08213EC5
:1001C800840001308500000801060319EE28EA01C1
:1001D800EA0AF6280130E6006608EF0708306F02E1
:1001E800031CDE2822002D082E0403190F292100E4
:1001F8006C08803AE60022002E08803A2100660248
:10020800031D0A2922002D0821006B02031C0F2957
:100218002100EA01EA0A21006A03031D3C29A030F3
:1002280086000030870021308400013085000830C6
:10023800E60016001A00E60B1D29DB01DB0AA030D8
:10024800DC000030DD000830E6006608DE00013022
:100258008F318227803121005C082200AA0021000A
:100268005B082200A90021004508C3004408C20019
:1002780022002B082C04031947292B0886002C0878
:100288008700811B08009731B32780312100DB01EB
:100298002030DC000130DD00DE01DE0A01308F3164
:1002A800822721005C082200AC0021005B082200A4
:1002B800AB00080020004203031D762940081F39BF
:1002C800003A031D76292100B117033020004106AA
:1002D800031D74290130D60056082100D60076295E
:1002E8002100D60120004208031D080040081F39DC
:1002F800023A031D080044080F39003A03190800A0
:1003080044080F39D600023056020318080020307E
:100318006C06031D08002100B1172000C41BA22988
:1003280044080F390907BC3E86008701403FDB00BF
:10033800413FDC0044080F39C63EAF2944080F3955
:100348000907B83E86008701403FDB00413FDC00DB
:1003580044080F39C83E860087010108D6005608B0
:10036800DA005A18C129FB30D600FF30D7005B08E5
:100378005605DB005C085705C62904305B04DB0022
:1003880000305C04DC00C41BD42944080F39090779
:10039800BC3E860087015B08C03F5C08C13FDE2980
:1003A80044080F390907B83E860087015B08C03F3B
:1003B8005C08C13F03304106031DFF295B08860026
:1003C8005C088700811FF429C41BEE2944080F39F3
:1003D800C63EF12944080F39C83E860087018114BA
:1003E8005B0886005C08870001155B0886005C08CE
:1003F80087008117080004305B06DB0000305C06CC
:10040800DC005B0886005C088700811F282A7F3093
:10041800D6005B0886005C088700560881055B08E3
:1004280086005C08870001170030D1000530D00035
:100438005C08D3005B08D2000230D4000030D5003D
:100448008B317E2381312E2A20005B0886005C08D0
:1004580087000117043020005B06DB0000305C06D3
:10046800DC00DA183D2A5B0886005C088700811FDB
:10047800612AC41B432A44080F39C63E462A440849
:100488000F39C83E8600870181103B30D6005B08D3
:1004980086005C088700560881050030D1000530C9
:1004A800D0005C08D3005B08D2000230D4000030D2
:1004B800D5008B317E2381316A2A3B302000D6005B
:1004C8005B0886005C088700560881052000440800
:1004D8000F39983ED600D7010E30D73D5608D800C0
:1004E8005708D900FE30D6005808860059088700FA
:1004F80056088105080020006C03031D8E2A3D0064
:100508008E1A8E2A90011214121602302000E20070
:100518006208EC003D001019121D9B2AFB302000D8
:10052800E20062083D0090058931282182313D00B2
:100538008E1CA12A2000121108001018121CB32AC0
:100548008531872582312100121504302000E20010
:100558006208EC00FE30E20062083D009005101AC7
:10056800121EB92A8831E92082313D00101FE32A82
:10057800121FCE2A73302000D0000030D100003086
:10058800D2000030D3000130D4000030D5008B31C8
:100598007E238231BF302000E20062083D009005D2
:1005A80088317F208231210052080319DD2A013069
:1005B800D2025208031DE32A8D319F2582313D0066
:1005C800901A921EEA2A8931482182313D009018FA
:1005D800921C002BFF302000D0007F30D10000306B
:1005E800D2000030D3000130D4000030D5008B3168
:1005F8007E2382313D009301043020006C020318F1
:10060800072B121108003D00921D5E2B2000E4010B
:100618000430640203185E2B3D00901D5E2B0F080A
:100628002000E2006208ED006D0CE200E20C620CB2
:100638000F39E30063082100D400F7302000E200FE
:1006480062083D00900520006D192E2B21005408EA
:10065800C63E312B21005408C83E86008701010898
:1006680001392000E2000130E20601086206FE3985
:100678006206810021005408031D462B8C31242476
:100688008231552B72302000D0000030D1006D30FF
:10069800D2000030D3000030D400D5008B317E2347
:1006A800823101302000E2006208E407043064026D
:1006B800031C102B20001211080022003008803A79
:1006C800F00080307002031D6B2B09302F020318D5
:1006D800732B01302200AF070030B03D0800220024
:1006E800AF01B001982B031020000D1F0314003038
:1006F800093DF000F10170082100CA007108CB0023
:10070800CE2B8B2B20000D1F922B0330932B200018
:100718000D1F922B2100CA01CB01CE2B02302100E4
:10072800CA000030CB00CE2B21004B08003A031939
:100738009E2BCE2B4A08003A0319772B013A03194E
:10074800852B033A0319862B013A03198B2BCE2BE1
:10075800CE2B031020008D1E03140030093DF0003D
:10076800F10170082200B3007108B4001A2CC12BE3
:1007780020008D1EC82B0330C92B20008D1EC82BCE
:100788002200B301B4011A2C02302200B300003059
:10079800B4001A2C22003408003A0319D42B1A2C5E
:1007A8003308003A0319AD2B013A0319BB2B033A5E
:1007B8000319BC2B013A0319C12B1A2C1A2C03104C
:1007C80020000D1E03140030093DF000F1017008EF
:1007D8002200B1007108B200080020000D1EF82B9D
:1007E8002200B101B201080002302200B10000303D
:1007F800B200080020000D1E072C03302200B100B3
:100808000030B200080002302200B1000030B2000F
:10081800080020000D1E142C2200B101B2010800AE
:1008280002302200B1000030B20008003208003A5D
:1008380003191F2C2E2C3108003A0319E32B013A17
:100848000319F12B033A0319FE2B013A03190D2C56
:100858002E2C08000800210012113D009301900180
:1008680098010E302100DD009930DC00DE015E08C1
:10087800031D4E2C5C0886005D088700810101304D
:10088800DC070030DD3D0130DB005B08DE075E0879
:1008980003193E2C16303D0091009F3097007B30A5
:1008A80092002100DF0108305F020318742C5F08F2
:1008B800DB000130DB35FF3E031D5E2C5B35203E3F
:1008C800860087010030C03F0030C13FC23FC33FB0
:1008D8000130DB005B08DF0708305F02031C5B2C7C
:1008E8003D000E1796010E120E13F7302100DB00A3
:1008F8005B083D0090052100B101AA01AB01AC01E4
:100908003D009019792C01302100DB005B08D000F4
:100918000130DB005B08CF00CE01CD01D501DF013E
:1009280002305F020318B82C5F35B83E8600870195
:100938000030C03FC13F5F35BC3E860087010030B4
:10094800C03FC13F5F08C83E8600870181015F083C
:10095800C63E8600870181010130DB005B08DF07A6
:1009680002305F02031C982C2830B8000030B90010
:1009780016303D00980000302000A3004030A2004F
:100988000830A10004302100DB005B082000A00033
:10099800A017EF0100302100B7000030B60000308A
:1009A800B5000030B400CC012000EC0108002000A4
:1009B8006B0886008701413FF5007508F200F301D6
:1009C800730821002C02031DEB2C72082B0203185C
:1009D800F12C2B08F2007208F5007508F200F301FB
:1009E8007208AB027308AC3BF40175087402031873
:1009F800112D7408483E860087010108F200280876
:100A080086008701720881000130F2007208A80789
:100A18000130F2007208F407F92C2B082C04031992
:100A28004C2D20006608013EF2000030673DF300BF
:100A38007208860073088700083081004830F20089
:100A48000030F300660886006708870042317208A4
:100A5800C03F7308C13F6B0886008701011B402D0A
:100A680066088600670887004830810066088600A7
:100A780067088700811708006608860067088700EE
:100A8800083081006608860067088700811708001B
:100A980020006608013EF2000030673DF30072084E
:100AA800860073088700083081004030F20000306B
:100AB800F300660886006708870042317208C03F65
:100AC8007308C13F66088600670887000430810004
:100AD8006608860067088700811721002D082E0404
:100AE80003197F2D0530A83E86008701413F8A0003
:100AF800403F0A0085312100AA135108031D080050
:100B08008D319F250800210012113D0093019001AD
:100B180098010E30F2009930F100F3017308031DBB
:100B2800A52D710886007208870081010130F10740
:100B38000030F23D0130F0007008F3077308031924
:100B4800952D16303D0091009F3097007B30920024
:100B5800F401083074020318CA2D7408F00001303B
:100B6800F035FF3E031DB42D7035203E8600870109
:100B78000030C03F0030C13FC23FC33F0130F000EA
:100B88007008F40708307402031CB12D3D000E17DD
:100B980096010E120E13F730F00070089005210030
:100BA800B101AA01AB01AC013D009019CF2D013074
:100BB800F00070082100D0000130F0007008CF006C
:100BC800CE01CD01D501F4010230740203180C2EB8
:100BD8007435B83E860087010030C03FC13F743588
:100BE800BC3E860087010030C03FC13F7408C83E44
:100BF8008600870181017408C63E8600870181014D
:100C08000130F0007008F40702307402031CEC2D68
:100C180028302100B8000030B90016303D00980097
:100C280000302000A3004030A2000830A1000430AA
:100C3800F0007008A000A017EF0100302100B700F5
:100C48000030B6000030B5000030B400CC01200000
:100C5800EC0108003D000E122100B11B762EAA1FE0
:100C6800442E0230F50075082000EA0021004D08E6
:100C7800031D402E8C317B242100CF01D0010800B8
:100C880020006608013EF5000030673DF600750853
:100C9800860076088700083081004030F500003073
:100CA800F600660886006708870042317508C03F6D
:100CB8007608C13F66088600670887000C30810007
:100CC80066088600670887008117210038088600B3
:100CD8003908870004308100380886003908870001
:100CE800811708002000C01F8D2E0130F5007508FF
:100CF800EA0021004E08031D842E8C317B248631A6
:100D08002100CF01D0015108031D08008D319F2516
:100D180008000230F50075082000EA006608013E68
:100D2800F5000030673DF6007508860076088700F4
:100D3800083081004030F5000030F6006608860073
:100D48006708870042317508C03F7608C13F6608CA
:100D580086006708870004308100660886006708F7
:100D6800870081172100CF01D0015108031D080019
:100D78008D319F250800200040081F39013A031DC6
:100D880008004408031D0800063041060319E72E31
:100D9800F32E6F03031DF32E85302100AF00903032
:100DA800B0000030B3000930E12E00302100AF0060
:100DB8009030B0000030B3003F30B200C030F400D3
:100DC8007408B100F32E20004308213A0319CD2EF0
:100DD800033A0319D92E013A0319F32EF32E2000F2
:100DE800400E890C0339013A031D08003A2F883157
:100DF8001C200800DA302100AF000030B0000030BD
:100E0800B3000130B200C130F4007408B10008002A
:100E18008030F40074082100B10020004308F40079
:100E280074082100DA005A08F4007408F000200061
:100E380042089731BE270800D9302100AF000030A2
:100E4800B0000030B3000130B2008130F400740803
:100E5800B10008008030F40074082100B1002000BF
:100E68004208F40074082100D90008002000410855
:100E7800013A03194F2F033A0319FE2E013A0319B9
:100E8800202F0A3A0319FB2E033A03190C2F013AB3
:100E980003192E2F4F2F0800803020004006031D15
:100EA8000800C030F00070082100B100C22F0030E7
:100EB8002100AF009830B0000030B3001230B2000B
:100EC800080020004208031D982F4208F000F10195
:100ED800F035F10D1C30700784009830713D8500A5
:100EE800003F2100AF00013FB0003008F1002F089B
:100EF800F00002307007840071080318710A850039
:100F08000008F2007208B2003008F1002F08F00063
:100F180003307007840071080318710A85000008FF
:100F2800F2007208B30008002100B1010800033084
:100F3800200042020318BC2F4208F000F101F035EE
:100F4800F10D1230700784009830713D8500003F24
:100F58002100AF00013FB0002F0884003008850051
:100F68000008F000F1017008B2007108B300080031
:100F78002100B10108002100B10108002000430848
:100F8800013A03195B2F033A0319652F013A031934
:100F98009B2FBF2F0800F000EE2F210095130D178F
:100FA80024000D172100CA01CB01080021008D166D
:100FB80023008D1224008D162200B301B40108000D
:100FC80021000D1623000D1224000D162200B10178
:100FD800B20108007008003A0319FC2F013A0319FE
:100FE800D12F033A0319DA2F013A0319E42FFC2F02
:020FF8000800EF
:101000008C31FB2C8C31FE2C8D31362D8C31FE2C0D
:101010008D31362D8C31DF2C8C31E72C8D311D2D0F
:101020008C31ED2C8C31EA2C8D31012D8D31112D2F
:041030008D31362D9B
:101038004830F00070082100A8000030AC000830EB
:10104800AB001730AE009F30AD00AA170800F000C3
:10105800332822000E17080022008E170800700897
:10106800003A03193E28013A03192D28033A0319B7
:1010780030283E280800F000472821000E130800F9
:1010880021008E1308007008003A03195228013A0B
:1010980003194128033A031944285228080021005B
:1010A800DB005C2822000E13080022008E130800C3
:1010B80021005B08003A03196828013A03195628E9
:1010C800033A03195928682808002100DB00722810
:1010D80022000E17080022008E17080021005B0866
:1010E800003A03197E28013A03196C28033A0319B8
:1010F8006F287E28080001302100B4070030B53D74
:101108000030B63D0030B73D5508031D08000130DA
:10111800F0007008CC074C08031D0800FF30F000F1
:101128007008CC000800F5007508F4007408F60093
:101138000130F2020030F33B720A0319730A0319F3
:1011480008007008F400760886008701740881009A
:101158000130F4007408F6079C282100E1006108BA
:10116800DF005F08E0000130DD020030DE3B5D0A91
:1011780003195E0A031908005B08DF00600886008F
:1011880087015F0881000130DF005F08E007B728AA
:1011980020006C08031D08003D008E0192011630E6
:1011A80091009F3097007B309200210012150B1799
:1011B8008B173D008E19E2288E15DD28013021009D
:1011C800DB005B082000EC0008003D001215EF3042
:1011D8002000D60056083D0090058E1401302000EE
:1011E800D60056082100D500CC0175302000D0006B
:1011F8000030D1000030D2000030D3000030D400DD
:10120800D5008B317E230800FC00771D1029F001E2
:101218007C088A3158228931F71C1729F001F00A15
:101228007C088A3158227C08983EF800F9010E3073
:10123800F93D7808FA007908FB007A0886007B08EF
:1012480087007708810008002100D501743020004C
:10125800D0000030D1000030D2000030D300003080
:10126800D400D5008B317E2389313D008E101211B8
:10127800101D4529FB302000D60056083D0090057A
:101288003C292100CC0108003D00181C6A292000D7
:101298006B088600870180300106031D682921003C
:1012A800380886003908870084300106031D68293C
:1012B8000C30F00020006B08860087017008810060
:1012C8006B088600870181173D001810DF30F00099
:1012D800700890050800F1008B29FC302100990066
:1012E800903027009B00013088313F20893102303F
:1012F80088313F20893101308731CF278931023049
:101308008731CF27893103308731CF27080071080B
:10131800003A03197129013A03199629033A031966
:101328009629962908002100DC00B329FC30990091
:10133800903027009B0001309731D927893102303E
:101348009731D927893101308931C021893102305B
:101358008931C021893103308931C0210800210039
:101368005C08003A03199A29013A0319BF29033A7C
:101378000319BF29BF2908002100DB00DD299513C7
:101388000D1724000D172100CA01CB0108008D1686
:1013980023008D1224008D162200B301B401080029
:1013A8000D1623000D1224000D162200B101B20102
:1013B800080021005B08003A0319EC29013A0319D7
:1013C800C329033A0319CB29013A0319D429EC2973
:1013D80008002200A901AA01F430AD000130AE00D6
:1013E8002000690821004306031DFE292000680823
:1013F800210042060319092A200069082100C300B8
:10140800200068082100C200F4291E30FD007D0874
:10141800F7000130893108218931F0012030F100CD
:101428000130F200F301F30A01308E318826710889
:101438002200AC007008AB000800023020006A06E9
:10144800031D292A8431DB2408002000EA01210039
:101458005308031D552A20006608013EF600003097
:10146800673DF70076088600770887000830810016
:101478004030F6000030F7006608860067088700ED
:1014880042317608C03F7708C13F66088600670882
:1014980087000C308100660886006708870081177E
:1014A80008002100D3010800F5002030F100710880
:1014B800F6007008F1000130F135890B602A7508D3
:1014C800F2000130F235FF3E031D662A72357107BE
:1014D800F3000130F335FF3E031D6E2A7335F40027
:1014E8007408F60776088600870181137008031DC3
:1014F800862A7535BC3E860087017608C03F0030D5
:10150800C13F8E2A7535B83E860087017608C03FF0
:101518000030C13F76088600870101137608043E33
:1015280086008701011708002100DC00D02A4B083B
:10153800803ADB0080305B02031DA42A02304A0295
:10154800031CA82A013008000030080022003408D3
:10155800803A2100DB0080305B02031DB62A02308E
:1015680022003302031CBA2A0130080000300800A8
:1015780022003208803A2100DB0080305B02031D24
:10158800C82A023022003102031CCC2A013008008C
:10159800003008000030080021005C08003A0319F8
:1015A800CE2A013A03199B2A033A0319AA2A013AB7
:1015B8000319BC2ADF2A003008003D008E1C222BAC
:1015C80001309731EC270800210040034104031D36
:1015D800F22A013088312B208A31282B4B30210008
:1015E80040064104031DFD2A01309731EC278A315A
:1015F800282B00302100410297301B2B210040038B
:101608004104031D0C2B013088312B208A31282BF3
:101618003230210040064104031D172B0130973159
:10162800EC278A31282B033021004102B7300319F7
:101638004002031C282BC001C101282B20006C0884
:10164800203A0319E82A022B01302100C007003094
:10165800C13D08002100D801D101CE01CD01D3013F
:101668002000EA017F30DE002100380886003908B2
:10167800870020005E088105043021003806B80084
:1016880000303906B9007F302000DE00210038081C
:1016980086003908870020005E0881050430210093
:1016A8003806B80000303906B9007F302000DE0067
:1016B80066088600670887005E0881052100B10179
:1016C800B201B301AA01AB01AC018C31D7248B3133
:1016D80000302000D1000330D0000030D2000030AC
:1016E800D3000030D400D5008B317E238B31863176
:1016F8002E260800A82B8A31E1228B318331612301
:101708008B312000680A7F30031969060319912B71
:101718000130E8070030E93D0800E801E901080068
:101728008A31E1228B31013089316F2108008A31F9
:10173800E1228B31023089316F2108008931ED2196
:1017480008008631BF26080020005108003A031916
:10175800B12B7F3A0319CB2BD02B5008013A031930
:10176800A22B033A0319D02B013A0319A52B063AE9
:101778000319D02B773A0319D02B013A03197F2B81
:10178800073A03199B2B013A0319942BD02B5008C5
:10179800FF3A0319D02BD02B08002000C801C9013B
:1017A8000B2C2100B11721005603031D172C200014
:1017B800C814172C2100B117172C2100B1172000CD
:1017C800C41BF02B44080F390907BC3E860087016B
:1017D800403FF100413FF92B44080F390907B83E53
:1017E80086008701403FF100413FF2007108860002
:1017F80072088700811F172C7108860072088700FD
:10180800011D172C0130F0007008C800172C400883
:101818001F39003A0319D52B013A0319DE2B033A75
:101828000319E12B172C2100B11F08004830AF0025
:101838000030B00031140230F0007008B200080027
:101848002D302000DF005F082100D20020006D0845
:10185800FD39031D702C6D363F39DF000130DF354F
:10186800FF3E031D332C5F35203EE0006008EB008F
:101878006B08E600FF39031D0030E70004306606F8
:10188800E60000306706E7006B0886008701010C58
:10189800890C0F390D3A031D6D2C403086008701E5
:1018A80020006B08023E84008501003FDF00013FF5
:1018B800E0005F088400600885000830E1006108E6
:1018C80003196A2C12001E00E10B662C8B312E23A3
:1018D80008008A3121220800FD3020006D05DF0054
:1018E80004305F06031D08008E3111260800210010
:1018F800CE01CD01023020006A06031DA82C66081F
:10190800013EF3000030673DF40073088600740858
:101918008700083081004830F3000030F400660882
:1019280086006708870042317308C03F7408C13FCA
:1019380066088600670887004830810066088600C8
:101948006708870081170800210033082000470234
:10195800031DB22C21003208200046020318BB2CBC
:1019680047082100B300200046082100B2008D314D
:1019780037254830F3000030F4002100380886008D
:101988003908870042317308C03F7408C13F3808DE
:1019980086003908870048308100380886003908F1
:1019A8008700811708002000400E890C0339003A8F
:1019B800031D08002B2D2100B11708302000DD0081
:1019C8005D08EC0008008731502708008F31052793
:1019D80008006F302100AF000030B0003114013032
:1019E8002000DD005D082100B200B11708008B312E
:1019F800D123080081315E210800200044086E3E92
:101A08002100AF000030B000311401302000DD00AB
:101A18005D082100B200B11708002100B1172000AD
:101A28004208DD0044086E3E860087015D0881009B
:101A380008000030D1000230D0000030D200003061
:101A4800D3000030D400D5008B317E23080020005D
:101A5800410884000D300402031808008831043559
:101A6800003E820008000830F0007008F2000030E4
:101A7800210033020830031932020318532D3208AB
:101A8800F0007008F2005808031D4C2D0130502D4D
:101A98005803031D532D0230F0007008D800720857
:101AA800F000F1017008B2027108B33B3808013E3A
:101AB800F0000030393DF100700886007108870099
:101AC800720881004830F0007008D700311C822D60
:101AD8009B2D2F088400300885000008F000570867
:101AE80086008701700881000130AF070030B03DE3
:101AF8000130F0007008D7070130F20272080319AC
:101B080008006D2D2F088400300885000008F000BB
:101B1800570886008701700881000130AF07003040
:101B2800B03D0130F0007008D7070130F2027208AA
:101B380003190800862D21005008031D08000130F4
:101B4800F0007008D0004F08031D08000130F000B5
:101B58007008CF00023020006A06031DC62D210040
:101B68003808860039088700413181013808860025
:101B7800390887004830810038088600390887000E
:101B88008117080020006A03031D08002100D30103
:101B98000830F00020006B0A860087017008810079
:101BA8004030F0000030F1006B08023E86008701EB
:101BB8007008C03F7108C13F0430F0006B08860010
:101BC8008701700881006B08860087018117013042
:101BD800F00070082100D30020006608013EF000E4
:101BE8000030673DF10070088600710887000830F2
:101BF80081004030F0000030F10066088600670878
:101C0800870042317008C03F7108C13F66088600EE
:101C180067088700803081000800210038088600A6
:101C2800390887000030011B0130F5000430380600
:101C3800B80000303906B900083020006C06031DD2
:101C4800332E42087F393D009600160803192E2EC0
:101C580010302F2E0430F30073082000EC006A03C4
:101C6800031D732E4830F3000030F40021003808BB
:101C780086003908870042317308C03F7408C13FA5
:101C88008D3137258E31023021005806031D582E1C
:101C98003808860039088700043081003808860033
:101CA80039088700811708007508031D672E380852
:101CB80086003908870048308100380886003908CE
:101CC800870081170800380886003908870008301F
:101CD800810038088600390887008117080021002C
:101CE800AA1F852E2D082E040319832E0530A83E21
:101CF80086008701413F8A00403F0A008E3121005B
:101D0800AA132000EA010800F80070080319942EAD
:101D18007835B83E86008701403FF900413F9B2E49
:101D28007835BC3E86008701403FF900413FFA0004
:101D380079087A04031DA32EF001F1010800FF3091
:101D48007105F4007F307205F500790886007A087D
:101D5800870042317408C03F7508C13F7908013EC9
:101D6800F40000307A3DF500740886007508870095
:101D7800730881004030F400790886007A088700EB
:101D880074088105790886007A0887008115790822
:101D980086007A088700811770080319EA2E7835BB
:101DA800B83E86008701403FF400413FF50004300B
:101DB8007406F60000307506F7007835B83E8600E0
:101DC80087017608C03F7708C13F002F7835BC3EB1
:101DD80086008701403FF400413FF5000430740657
:101DE800F60000307506F7007835BC3E860087019E
:101DF8007608C03F7708C13F7A08F1007908F000FB
:101E080008002100B1170E302000D8009930D70003
:101E1800D9015908031D202F570886005808870044
:101E280081010130D7070030D83D0130D60056086F
:101E3800D90759080319102F0030F000F10020309D
:101E4800F2000030F3002030883197208F313D00B8
:101E58000E172000DA0102305A020318452F5A08DB
:101E6800C83E8600870181015A08C63E8600870160
:101E780081010130D6005608DA0702305A02031CE5
:101E8800332F0030F000F1000130F2000030F30091
:101E98006E30883197208F313D000E132830210095
:101EA800B8000030B90020302000D6005608EB00FA
:101EB8006B08E600FF39031D0030E7004208D60032
:101EC8005608EF006F08031D6E2F1030D600560815
:101ED800EC0008000030D1000130D0006F30D20093
:101EE8000030D3000130D4000030D5008B317E2380
:101EF80020302000D6005608EC0008002100E3003E
:101F08005B0803198F2F6335B83E86008701403F71
:101F1800E400413F962F6335BC3E86008701403F71
:101F2800E400413FE50064086504031D9E2FDB01C2
:101F3800DC010800FF305C05DF007F305D05E00054
:101F4800640886006508870042315F08C03F600862
:101F5800C13F6408013EDF000030653DE0005F08D6
:101F68008600600887005E0881004030DF00640852
:101F78008600650887005F08810564088600650893
:101F880087008115640886006508870081175B084B
:101F98000319E52F6335B83E86008701403FDF000F
:101FA800413FE00004305F06E10000306006E200D7
:101FB8006335B83E860087016108C03F6208C13FAB
:101FC800FB2F6335BC3E86008701403FDF00413F61
:101FD800E00004305F06E10000306006E20063358F
:101FE800BC3E860087016108C03F6208C13F6508A2
:101FF800DC006408DB0008000534013409340634C9
:10200800A1340134053407341934E0342934E73471
:1020180015340034253401347534013495340834CA
:1020280081340234953401347534083481340334EE
:1020380095340534753401340534083419340134C1
:102048002934053491340234953401347534033419
:102058009134033495340634753408341534003417
:10206800253465340534073419340034293465348B
:1020780081340034C034343403344D34003469348A
:10208800003463340034723400346F340034633401
:102098000034683400346934003470340034203437
:1020A8000034543400346534003463340034683404
:1020B80000346E3400346F3400346C3400346F34C0
:1020C800003467340034793400342034003449341F
:1020D80000346E340034633400342E340034093450
:1020E800023429340034013401340034C034323429
:1020F8000934043400340034023403340134013424
:1021080000340934213411340134003401342234C8
:102118003F34003407340534813403340834003440
:1021280001340734053401340334083400340134ED
:102138001C3403344B3400346534003479340034AF
:10214800623400346F340034613400347234003443
:1021580064340034203400344434003465340034AA
:082168006D3400346F340034C3
:102F3200640080010131890B9A2F00342000480877
:102F4200F10071082200A0009731A8270800220092
:102F5200A01CAF2F023088312B200800023097319D
:102F6200EC2708002200A01CBA2F02308831692009
:102F720008000230883153200800F3007308031D53
:102F820008007008F100F20171082200AD00720819
:102F9200AE000800003089319721973184312F2407
:102FA20097318831CC20973180312D209731D52F20
:102FB2002100DB00E02F0E1308008E1308005B08CF
:102FC200003A0319EB2F013A0319DC2F033A0319D4
:102FD200DE2FEB2F0800F000F42F22000E13080062
:102FE20022008E1308007008003A0319FF2F013ADD
:102FF2000319EE2F033A0319F12FFF2F08001234A1
:103002000134003402340034003400340834D8343B
:1030120004345534003401340034013402340034B1
:103022000134183498343F3490349C34903404344E
:0A303200033409340434733490347D
:020000040001F9
:04000E00A4CFCFDFCD
:00000001FF
